{
  "contractName": "FLibra",
  "abi": [
    {
      "constant": true,
      "inputs": [
        {
          "name": "",
          "type": "address"
        },
        {
          "name": "",
          "type": "uint256"
        }
      ],
      "name": "myPurchasedItemId",
      "outputs": [
        {
          "name": "",
          "type": "uint256"
        }
      ],
      "payable": false,
      "stateMutability": "view",
      "type": "function",
      "signature": "0x053872dd"
    },
    {
      "constant": true,
      "inputs": [
        {
          "name": "",
          "type": "uint256"
        }
      ],
      "name": "reviewToPurchaser",
      "outputs": [
        {
          "name": "itemId",
          "type": "uint256"
        },
        {
          "name": "star",
          "type": "uint256"
        },
        {
          "name": "text",
          "type": "string"
        }
      ],
      "payable": false,
      "stateMutability": "view",
      "type": "function",
      "signature": "0x342803a6"
    },
    {
      "constant": true,
      "inputs": [
        {
          "name": "",
          "type": "uint256"
        }
      ],
      "name": "onSaleItems",
      "outputs": [
        {
          "name": "",
          "type": "uint256"
        }
      ],
      "payable": false,
      "stateMutability": "view",
      "type": "function",
      "signature": "0x4495f9aa"
    },
    {
      "constant": true,
      "inputs": [
        {
          "name": "",
          "type": "address"
        },
        {
          "name": "",
          "type": "uint256"
        }
      ],
      "name": "myItemId",
      "outputs": [
        {
          "name": "",
          "type": "uint256"
        }
      ],
      "payable": false,
      "stateMutability": "view",
      "type": "function",
      "signature": "0x7d007351"
    },
    {
      "constant": true,
      "inputs": [
        {
          "name": "",
          "type": "uint256"
        }
      ],
      "name": "reviewToSeller",
      "outputs": [
        {
          "name": "itemId",
          "type": "uint256"
        },
        {
          "name": "star",
          "type": "uint256"
        },
        {
          "name": "text",
          "type": "string"
        }
      ],
      "payable": false,
      "stateMutability": "view",
      "type": "function",
      "signature": "0xfa0626a3"
    },
    {
      "constant": true,
      "inputs": [
        {
          "name": "",
          "type": "uint256"
        }
      ],
      "name": "allItems",
      "outputs": [
        {
          "name": "id",
          "type": "uint256"
        },
        {
          "name": "itemName",
          "type": "string"
        },
        {
          "name": "price",
          "type": "uint256"
        },
        {
          "name": "seller",
          "type": "address"
        },
        {
          "name": "selling",
          "type": "bool"
        },
        {
          "name": "purchaser",
          "type": "address"
        }
      ],
      "payable": false,
      "stateMutability": "view",
      "type": "function",
      "signature": "0xff68fa6e"
    },
    {
      "inputs": [],
      "payable": false,
      "stateMutability": "nonpayable",
      "type": "constructor",
      "signature": "constructor"
    },
    {
      "anonymous": false,
      "inputs": [
        {
          "indexed": false,
          "name": "id",
          "type": "uint256"
        },
        {
          "indexed": false,
          "name": "itemName",
          "type": "string"
        },
        {
          "indexed": false,
          "name": "price",
          "type": "uint256"
        },
        {
          "indexed": false,
          "name": "seller",
          "type": "address"
        },
        {
          "indexed": false,
          "name": "selling",
          "type": "bool"
        },
        {
          "indexed": false,
          "name": "purchaser",
          "type": "address"
        }
      ],
      "name": "PostItem",
      "type": "event",
      "signature": "0xa6c41b3428ddb2be08b190312c47e37d36f7a61d4577adbcceb40f9f2299588a"
    },
    {
      "anonymous": false,
      "inputs": [
        {
          "indexed": false,
          "name": "id",
          "type": "uint256"
        },
        {
          "indexed": false,
          "name": "purchaser",
          "type": "address"
        }
      ],
      "name": "ItemPurchased",
      "type": "event",
      "signature": "0x7ce670ea54227685ed72f8669179c51b47ba2251ce7cfac367725a7b8f9b743d"
    },
    {
      "anonymous": false,
      "inputs": [
        {
          "indexed": false,
          "name": "id",
          "type": "uint256"
        },
        {
          "indexed": false,
          "name": "itemName",
          "type": "string"
        },
        {
          "indexed": false,
          "name": "price",
          "type": "uint256"
        }
      ],
      "name": "EditItem",
      "type": "event",
      "signature": "0x48931a1d7df3fc79052ba35e8d7b596ae44897b0bf5b1bdf6e23e65db4d6878d"
    },
    {
      "anonymous": false,
      "inputs": [
        {
          "indexed": false,
          "name": "itemId",
          "type": "uint256"
        },
        {
          "indexed": false,
          "name": "star",
          "type": "uint256"
        },
        {
          "indexed": false,
          "name": "text",
          "type": "string"
        }
      ],
      "name": "WriteReviewToSeller",
      "type": "event",
      "signature": "0x2da3ea64410ead21f3ff98fbcddd5a3c9e297be46413dfbda5f69ca8c4afa64e"
    },
    {
      "anonymous": false,
      "inputs": [
        {
          "indexed": false,
          "name": "itemId",
          "type": "uint256"
        },
        {
          "indexed": false,
          "name": "star",
          "type": "uint256"
        },
        {
          "indexed": false,
          "name": "text",
          "type": "string"
        }
      ],
      "name": "WriteReviewToPurchaser",
      "type": "event",
      "signature": "0xc0c0cf8f27a90e3b9862a6149eb84b21e1bbf195b7087b14e20dd272e7463d6f"
    },
    {
      "constant": false,
      "inputs": [
        {
          "name": "_itemName",
          "type": "string"
        },
        {
          "name": "_price",
          "type": "uint256"
        }
      ],
      "name": "setItem",
      "outputs": [],
      "payable": false,
      "stateMutability": "nonpayable",
      "type": "function",
      "signature": "0x389dc09b"
    },
    {
      "constant": false,
      "inputs": [
        {
          "name": "_id",
          "type": "uint256"
        }
      ],
      "name": "purchaseItem",
      "outputs": [],
      "payable": false,
      "stateMutability": "nonpayable",
      "type": "function",
      "signature": "0xd38ea5bf"
    },
    {
      "constant": false,
      "inputs": [
        {
          "name": "_id",
          "type": "uint256"
        },
        {
          "name": "_itemName",
          "type": "string"
        },
        {
          "name": "_price",
          "type": "uint256"
        }
      ],
      "name": "editItem",
      "outputs": [],
      "payable": false,
      "stateMutability": "nonpayable",
      "type": "function",
      "signature": "0xa21a74b2"
    },
    {
      "constant": false,
      "inputs": [
        {
          "name": "_id",
          "type": "uint256"
        },
        {
          "name": "_star",
          "type": "uint256"
        },
        {
          "name": "_text",
          "type": "string"
        }
      ],
      "name": "writeReviewToSeller",
      "outputs": [],
      "payable": false,
      "stateMutability": "nonpayable",
      "type": "function",
      "signature": "0xa77d898f"
    },
    {
      "constant": false,
      "inputs": [
        {
          "name": "_id",
          "type": "uint256"
        },
        {
          "name": "_star",
          "type": "uint256"
        },
        {
          "name": "_text",
          "type": "string"
        }
      ],
      "name": "writeReviewToPurchaser",
      "outputs": [],
      "payable": false,
      "stateMutability": "nonpayable",
      "type": "function",
      "signature": "0x60e0c149"
    },
    {
      "constant": true,
      "inputs": [
        {
          "name": "_address",
          "type": "address"
        }
      ],
      "name": "getMyItemId",
      "outputs": [
        {
          "name": "",
          "type": "uint256[]"
        }
      ],
      "payable": false,
      "stateMutability": "view",
      "type": "function",
      "signature": "0x1fda9105"
    },
    {
      "constant": true,
      "inputs": [
        {
          "name": "_id",
          "type": "uint256"
        }
      ],
      "name": "getMyItem",
      "outputs": [
        {
          "components": [
            {
              "name": "id",
              "type": "uint256"
            },
            {
              "name": "itemName",
              "type": "string"
            },
            {
              "name": "price",
              "type": "uint256"
            },
            {
              "name": "seller",
              "type": "address"
            },
            {
              "name": "selling",
              "type": "bool"
            },
            {
              "name": "purchaser",
              "type": "address"
            }
          ],
          "name": "",
          "type": "tuple"
        }
      ],
      "payable": false,
      "stateMutability": "view",
      "type": "function",
      "signature": "0x2877d196"
    },
    {
      "constant": true,
      "inputs": [],
      "name": "getNumberOfItem",
      "outputs": [
        {
          "name": "",
          "type": "uint256"
        }
      ],
      "payable": false,
      "stateMutability": "view",
      "type": "function",
      "signature": "0x61978244"
    },
    {
      "constant": true,
      "inputs": [
        {
          "name": "_id",
          "type": "uint256"
        }
      ],
      "name": "getAllItem",
      "outputs": [
        {
          "components": [
            {
              "name": "id",
              "type": "uint256"
            },
            {
              "name": "itemName",
              "type": "string"
            },
            {
              "name": "price",
              "type": "uint256"
            },
            {
              "name": "seller",
              "type": "address"
            },
            {
              "name": "selling",
              "type": "bool"
            },
            {
              "name": "purchaser",
              "type": "address"
            }
          ],
          "name": "",
          "type": "tuple"
        }
      ],
      "payable": false,
      "stateMutability": "view",
      "type": "function",
      "signature": "0x36fcee3b"
    },
    {
      "constant": true,
      "inputs": [
        {
          "name": "_selling",
          "type": "bool"
        }
      ],
      "name": "getOnSaleItemsId",
      "outputs": [
        {
          "name": "",
          "type": "uint256[]"
        }
      ],
      "payable": false,
      "stateMutability": "view",
      "type": "function",
      "signature": "0xf91aa97f"
    },
    {
      "constant": true,
      "inputs": [
        {
          "name": "_id",
          "type": "uint256"
        }
      ],
      "name": "getItemOnSale",
      "outputs": [
        {
          "components": [
            {
              "name": "id",
              "type": "uint256"
            },
            {
              "name": "itemName",
              "type": "string"
            },
            {
              "name": "price",
              "type": "uint256"
            },
            {
              "name": "seller",
              "type": "address"
            },
            {
              "name": "selling",
              "type": "bool"
            },
            {
              "name": "purchaser",
              "type": "address"
            }
          ],
          "name": "",
          "type": "tuple"
        }
      ],
      "payable": false,
      "stateMutability": "view",
      "type": "function",
      "signature": "0xd399e230"
    },
    {
      "constant": true,
      "inputs": [
        {
          "name": "_address",
          "type": "address"
        }
      ],
      "name": "getMyPurchasedItemId",
      "outputs": [
        {
          "name": "",
          "type": "uint256[]"
        }
      ],
      "payable": false,
      "stateMutability": "view",
      "type": "function",
      "signature": "0x81e84ee8"
    },
    {
      "constant": true,
      "inputs": [
        {
          "name": "_id",
          "type": "uint256"
        }
      ],
      "name": "getMyPurchasedItem",
      "outputs": [
        {
          "components": [
            {
              "name": "id",
              "type": "uint256"
            },
            {
              "name": "itemName",
              "type": "string"
            },
            {
              "name": "price",
              "type": "uint256"
            },
            {
              "name": "seller",
              "type": "address"
            },
            {
              "name": "selling",
              "type": "bool"
            },
            {
              "name": "purchaser",
              "type": "address"
            }
          ],
          "name": "",
          "type": "tuple"
        }
      ],
      "payable": false,
      "stateMutability": "view",
      "type": "function",
      "signature": "0xc7bff60e"
    },
    {
      "constant": true,
      "inputs": [
        {
          "name": "_id",
          "type": "uint256"
        }
      ],
      "name": "getSellerReview",
      "outputs": [
        {
          "components": [
            {
              "name": "itemId",
              "type": "uint256"
            },
            {
              "name": "star",
              "type": "uint256"
            },
            {
              "name": "text",
              "type": "string"
            }
          ],
          "name": "",
          "type": "tuple"
        }
      ],
      "payable": false,
      "stateMutability": "view",
      "type": "function",
      "signature": "0x4a05f128"
    },
    {
      "constant": true,
      "inputs": [
        {
          "name": "_id",
          "type": "uint256"
        }
      ],
      "name": "getPurchaserReview",
      "outputs": [
        {
          "components": [
            {
              "name": "itemId",
              "type": "uint256"
            },
            {
              "name": "star",
              "type": "uint256"
            },
            {
              "name": "text",
              "type": "string"
            }
          ],
          "name": "",
          "type": "tuple"
        }
      ],
      "payable": false,
      "stateMutability": "view",
      "type": "function",
      "signature": "0xbbb3da62"
    }
  ],
  "bytecode": "0x60806040526000805534801561001457600080fd5b5061290d806100246000396000f3fe608060405234801561001057600080fd5b5060043610610154576000357c0100000000000000000000000000000000000000000000000000000000900480637d007351116100d5578063c7bff60e11610099578063c7bff60e146103c9578063d38ea5bf146103f9578063d399e23014610415578063f91aa97f14610445578063fa0626a314610475578063ff68fa6e146104a757610154565b80637d0073511461030157806381e84ee814610331578063a21a74b214610361578063a77d898f1461037d578063bbb3da621461039957610154565b8063389dc09b1161011c578063389dc09b1461024b5780634495f9aa146102675780634a05f1281461029757806360e0c149146102c757806361978244146102e357610154565b8063053872dd146101595780631fda9105146101895780632877d196146101b9578063342803a6146101e957806336fcee3b1461021b575b600080fd5b610173600480360361016e919081019061203e565b6104dc565b6040516101809190612525565b60405180910390f35b6101a3600480360361019e9190810190612015565b61050a565b6040516101b0919061249d565b60405180910390f35b6101d360048036036101ce91908101906120f7565b6105a1565b6040516101e091906124bf565b60405180910390f35b61020360048036036101fe91908101906120f7565b610753565b60405161021293929190612677565b60405180910390f35b610235600480360361023091908101906120f7565b610815565b60405161024291906124bf565b60405180910390f35b610265600480360361026091908101906120a3565b6109c7565b005b610281600480360361027c91908101906120f7565b610bf5565b60405161028e9190612525565b60405180910390f35b6102b160048036036102ac91908101906120f7565b610c16565b6040516102be9190612503565b60405180910390f35b6102e160048036036102dc9190810190612187565b610cf9565b005b6102eb610e4d565b6040516102f89190612525565b60405180910390f35b61031b6004803603610316919081019061203e565b610e5a565b6040516103289190612525565b60405180910390f35b61034b60048036036103469190810190612015565b610e88565b604051610358919061249d565b60405180910390f35b61037b60048036036103769190810190612120565b610f1f565b005b61039760048036036103929190810190612187565b611294565b005b6103b360048036036103ae91908101906120f7565b6113e8565b6040516103c091906124e1565b60405180910390f35b6103e360048036036103de91908101906120f7565b6114cb565b6040516103f091906124bf565b60405180910390f35b610413600480360361040e91908101906120f7565b6116b9565b005b61042f600480360361042a91908101906120f7565b611a53565b60405161043c91906124bf565b60405180910390f35b61045f600480360361045a919081019061207a565b611c43565b60405161046c919061249d565b60405180910390f35b61048f600480360361048a91908101906120f7565b611c4a565b60405161049e93929190612677565b60405180910390f35b6104c160048036036104bc91908101906120f7565b611d0c565b6040516104d39695949392919061260f565b60405180910390f35b600460205281600052604060002081815481106104f557fe5b90600052602060002001600091509150505481565b6060600360008373ffffffffffffffffffffffffffffffffffffffff1673ffffffffffffffffffffffffffffffffffffffff16815260200190815260200160002080548060200260200160405190810160405280929190818152602001828054801561059557602002820191906000526020600020905b815481526020019060010190808311610581575b50505050509050919050565b6105a9611e3a565b600282815481106105b657fe5b90600052602060002090600502016040518060c001604052908160008201548152602001600182018054600181600116156101000203166002900480601f0160208091040260200160405190810160405280929190818152602001828054600181600116156101000203166002900480156106725780601f1061064757610100808354040283529160200191610672565b820191906000526020600020905b81548152906001019060200180831161065557829003601f168201915b50505050508152602001600282015481526020016003820160009054906101000a900473ffffffffffffffffffffffffffffffffffffffff1673ffffffffffffffffffffffffffffffffffffffff1673ffffffffffffffffffffffffffffffffffffffff1681526020016003820160149054906101000a900460ff161515151581526020016004820160009054906101000a900473ffffffffffffffffffffffffffffffffffffffff1673ffffffffffffffffffffffffffffffffffffffff1673ffffffffffffffffffffffffffffffffffffffff16815250509050919050565b6006602052806000526040600020600091509050806000015490806001015490806002018054600181600116156101000203166002900480601f01602080910402602001604051908101604052809291908181526020018280546001816001161561010002031660029004801561080b5780601f106107e05761010080835404028352916020019161080b565b820191906000526020600020905b8154815290600101906020018083116107ee57829003601f168201915b5050505050905083565b61081d611e3a565b6002828154811061082a57fe5b90600052602060002090600502016040518060c001604052908160008201548152602001600182018054600181600116156101000203166002900480601f0160208091040260200160405190810160405280929190818152602001828054600181600116156101000203166002900480156108e65780601f106108bb576101008083540402835291602001916108e6565b820191906000526020600020905b8154815290600101906020018083116108c957829003601f168201915b50505050508152602001600282015481526020016003820160009054906101000a900473ffffffffffffffffffffffffffffffffffffffff1673ffffffffffffffffffffffffffffffffffffffff1673ffffffffffffffffffffffffffffffffffffffff1681526020016003820160149054906101000a900460ff161515151581526020016004820160009054906101000a900473ffffffffffffffffffffffffffffffffffffffff1673ffffffffffffffffffffffffffffffffffffffff1673ffffffffffffffffffffffffffffffffffffffff16815250509050919050565b60026040518060c0016040528060005481526020018481526020018381526020013373ffffffffffffffffffffffffffffffffffffffff168152602001600115158152602001600073ffffffffffffffffffffffffffffffffffffffff1681525090806001815401808255809150509060018203906000526020600020906005020160009091929091909150600082015181600001556020820151816001019080519060200190610a79929190611e9e565b506040820151816002015560608201518160030160006101000a81548173ffffffffffffffffffffffffffffffffffffffff021916908373ffffffffffffffffffffffffffffffffffffffff16021790555060808201518160030160146101000a81548160ff02191690831515021790555060a08201518160040160006101000a81548173ffffffffffffffffffffffffffffffffffffffff021916908373ffffffffffffffffffffffffffffffffffffffff160217905550505050600360003373ffffffffffffffffffffffffffffffffffffffff1673ffffffffffffffffffffffffffffffffffffffff16815260200190815260200160002060005490806001815401808255809150509060018203906000526020600020016000909192909190915055507fa6c41b3428ddb2be08b190312c47e37d36f7a61d4577adbcceb40f9f2299588a60005483833360016000604051610bdd969594939291906125a7565b60405180910390a16001600054016000819055505050565b60018181548110610c0257fe5b906000526020600020016000915090505481565b610c1e611f1e565b600560008381526020019081526020016000206040518060600160405290816000820154815260200160018201548152602001600282018054600181600116156101000203166002900480601f016020809104026020016040519081016040528092919081815260200182805460018160011615610100020316600290048015610ce95780601f10610cbe57610100808354040283529160200191610ce9565b820191906000526020600020905b815481529060010190602001808311610ccc57829003601f168201915b5050505050815250509050919050565b6000151560028481548110610d0a57fe5b906000526020600020906005020160030160149054906101000a900460ff16151514610d3557600080fd5b3373ffffffffffffffffffffffffffffffffffffffff1660028481548110610d5957fe5b906000526020600020906005020160030160009054906101000a900473ffffffffffffffffffffffffffffffffffffffff1673ffffffffffffffffffffffffffffffffffffffff1614610dab57600080fd5b6040518060600160405280848152602001838152602001828152506006600085815260200190815260200160002060008201518160000155602082015181600101556040820151816002019080519060200190610e09929190611e9e565b509050507fc0c0cf8f27a90e3b9862a6149eb84b21e1bbf195b7087b14e20dd272e7463d6f838383604051610e40939291906126b5565b60405180910390a1505050565b6000600280549050905090565b60036020528160005260406000208181548110610e7357fe5b90600052602060002001600091509150505481565b6060600460008373ffffffffffffffffffffffffffffffffffffffff1673ffffffffffffffffffffffffffffffffffffffff168152602001908152602001600020805480602002602001604051908101604052809291908181526020018280548015610f1357602002820191906000526020600020905b815481526020019060010190808311610eff575b50505050509050919050565b3373ffffffffffffffffffffffffffffffffffffffff1660028481548110610f4357fe5b906000526020600020906005020160030160009054906101000a900473ffffffffffffffffffffffffffffffffffffffff1673ffffffffffffffffffffffffffffffffffffffff1614610f9557600080fd5b610f9d611e3a565b60028481548110610faa57fe5b90600052602060002090600502016040518060c001604052908160008201548152602001600182018054600181600116156101000203166002900480601f0160208091040260200160405190810160405280929190818152602001828054600181600116156101000203166002900480156110665780601f1061103b57610100808354040283529160200191611066565b820191906000526020600020905b81548152906001019060200180831161104957829003601f168201915b50505050508152602001600282015481526020016003820160009054906101000a900473ffffffffffffffffffffffffffffffffffffffff1673ffffffffffffffffffffffffffffffffffffffff1673ffffffffffffffffffffffffffffffffffffffff1681526020016003820160149054906101000a900460ff161515151581526020016004820160009054906101000a900473ffffffffffffffffffffffffffffffffffffffff1673ffffffffffffffffffffffffffffffffffffffff1673ffffffffffffffffffffffffffffffffffffffff1681525050905082816020018190525081816040018181525050806002858154811061116357fe5b9060005260206000209060050201600082015181600001556020820151816001019080519060200190611197929190611e9e565b506040820151816002015560608201518160030160006101000a81548173ffffffffffffffffffffffffffffffffffffffff021916908373ffffffffffffffffffffffffffffffffffffffff16021790555060808201518160030160146101000a81548160ff02191690831515021790555060a08201518160040160006101000a81548173ffffffffffffffffffffffffffffffffffffffff021916908373ffffffffffffffffffffffffffffffffffffffff1602179055509050507f48931a1d7df3fc79052ba35e8d7b596ae44897b0bf5b1bdf6e23e65db4d6878d84848460405161128693929190612569565b60405180910390a150505050565b60001515600284815481106112a557fe5b906000526020600020906005020160030160149054906101000a900460ff161515146112d057600080fd5b3373ffffffffffffffffffffffffffffffffffffffff16600284815481106112f457fe5b906000526020600020906005020160040160009054906101000a900473ffffffffffffffffffffffffffffffffffffffff1673ffffffffffffffffffffffffffffffffffffffff161461134657600080fd5b60405180606001604052808481526020018381526020018281525060056000858152602001908152602001600020600082015181600001556020820151816001015560408201518160020190805190602001906113a4929190611e9e565b509050507f2da3ea64410ead21f3ff98fbcddd5a3c9e297be46413dfbda5f69ca8c4afa64e8383836040516113db939291906126b5565b60405180910390a1505050565b6113f0611f3f565b600660008381526020019081526020016000206040518060600160405290816000820154815260200160018201548152602001600282018054600181600116156101000203166002900480601f0160208091040260200160405190810160405280929190818152602001828054600181600116156101000203166002900480156114bb5780601f10611490576101008083540402835291602001916114bb565b820191906000526020600020905b81548152906001019060200180831161149e57829003601f168201915b5050505050815250509050919050565b6114d3611e3a565b60001515600283815481106114e457fe5b906000526020600020906005020160030160149054906101000a900460ff1615151461150f57600080fd5b6002828154811061151c57fe5b90600052602060002090600502016040518060c001604052908160008201548152602001600182018054600181600116156101000203166002900480601f0160208091040260200160405190810160405280929190818152602001828054600181600116156101000203166002900480156115d85780601f106115ad576101008083540402835291602001916115d8565b820191906000526020600020905b8154815290600101906020018083116115bb57829003601f168201915b50505050508152602001600282015481526020016003820160009054906101000a900473ffffffffffffffffffffffffffffffffffffffff1673ffffffffffffffffffffffffffffffffffffffff1673ffffffffffffffffffffffffffffffffffffffff1681526020016003820160149054906101000a900460ff161515151581526020016004820160009054906101000a900473ffffffffffffffffffffffffffffffffffffffff1673ffffffffffffffffffffffffffffffffffffffff1673ffffffffffffffffffffffffffffffffffffffff16815250509050919050565b6116c1611e3a565b600282815481106116ce57fe5b90600052602060002090600502016040518060c001604052908160008201548152602001600182018054600181600116156101000203166002900480601f01602080910402602001604051908101604052809291908181526020018280546001816001161561010002031660029004801561178a5780601f1061175f5761010080835404028352916020019161178a565b820191906000526020600020905b81548152906001019060200180831161176d57829003601f168201915b50505050508152602001600282015481526020016003820160009054906101000a900473ffffffffffffffffffffffffffffffffffffffff1673ffffffffffffffffffffffffffffffffffffffff1673ffffffffffffffffffffffffffffffffffffffff1681526020016003820160149054906101000a900460ff161515151581526020016004820160009054906101000a900473ffffffffffffffffffffffffffffffffffffffff1673ffffffffffffffffffffffffffffffffffffffff1673ffffffffffffffffffffffffffffffffffffffff168152505090506000816080019015159081151581525050338160a0019073ffffffffffffffffffffffffffffffffffffffff16908173ffffffffffffffffffffffffffffffffffffffff168152505080600283815481106118bd57fe5b90600052602060002090600502016000820151816000015560208201518160010190805190602001906118f1929190611e9e565b506040820151816002015560608201518160030160006101000a81548173ffffffffffffffffffffffffffffffffffffffff021916908373ffffffffffffffffffffffffffffffffffffffff16021790555060808201518160030160146101000a81548160ff02191690831515021790555060a08201518160040160006101000a81548173ffffffffffffffffffffffffffffffffffffffff021916908373ffffffffffffffffffffffffffffffffffffffff160217905550905050600460003373ffffffffffffffffffffffffffffffffffffffff1673ffffffffffffffffffffffffffffffffffffffff1681526020019081526020016000208290806001815401808255809150509060018203906000526020600020016000909192909190915055507f7ce670ea54227685ed72f8669179c51b47ba2251ce7cfac367725a7b8f9b743d8233604051611a47929190612540565b60405180910390a15050565b611a5b611e3a565b6001151560028381548110611a6c57fe5b906000526020600020906005020160030160149054906101000a900460ff1615151415611c3d5760028281548110611aa057fe5b90600052602060002090600502016040518060c001604052908160008201548152602001600182018054600181600116156101000203166002900480601f016020809104026020016040519081016040528092919081815260200182805460018160011615610100020316600290048015611b5c5780601f10611b3157610100808354040283529160200191611b5c565b820191906000526020600020905b815481529060010190602001808311611b3f57829003601f168201915b50505050508152602001600282015481526020016003820160009054906101000a900473ffffffffffffffffffffffffffffffffffffffff1673ffffffffffffffffffffffffffffffffffffffff1673ffffffffffffffffffffffffffffffffffffffff1681526020016003820160149054906101000a900460ff161515151581526020016004820160009054906101000a900473ffffffffffffffffffffffffffffffffffffffff1673ffffffffffffffffffffffffffffffffffffffff1673ffffffffffffffffffffffffffffffffffffffff16815250509050611c3e565b5b919050565b6060919050565b6005602052806000526040600020600091509050806000015490806001015490806002018054600181600116156101000203166002900480601f016020809104026020016040519081016040528092919081815260200182805460018160011615610100020316600290048015611d025780601f10611cd757610100808354040283529160200191611d02565b820191906000526020600020905b815481529060010190602001808311611ce557829003601f168201915b5050505050905083565b60028181548110611d1957fe5b9060005260206000209060050201600091509050806000015490806001018054600181600116156101000203166002900480601f016020809104026020016040519081016040528092919081815260200182805460018160011615610100020316600290048015611dcb5780601f10611da057610100808354040283529160200191611dcb565b820191906000526020600020905b815481529060010190602001808311611dae57829003601f168201915b5050505050908060020154908060030160009054906101000a900473ffffffffffffffffffffffffffffffffffffffff16908060030160149054906101000a900460ff16908060040160009054906101000a900473ffffffffffffffffffffffffffffffffffffffff16905086565b6040518060c00160405280600081526020016060815260200160008152602001600073ffffffffffffffffffffffffffffffffffffffff168152602001600015158152602001600073ffffffffffffffffffffffffffffffffffffffff1681525090565b828054600181600116156101000203166002900490600052602060002090601f016020900481019282601f10611edf57805160ff1916838001178555611f0d565b82800160010185558215611f0d579182015b82811115611f0c578251825591602001919060010190611ef1565b5b509050611f1a9190611f60565b5090565b60405180606001604052806000815260200160008152602001606081525090565b60405180606001604052806000815260200160008152602001606081525090565b611f8291905b80821115611f7e576000816000905550600101611f66565b5090565b90565b6000611f918235612802565b905092915050565b6000611fa58235612814565b905092915050565b600082601f830112611fbe57600080fd5b8135611fd1611fcc82612720565b6126f3565b91508082526020830160208301858383011115611fed57600080fd5b611ff8838284612880565b50505092915050565b600061200d8235612840565b905092915050565b60006020828403121561202757600080fd5b600061203584828501611f85565b91505092915050565b6000806040838503121561205157600080fd5b600061205f85828601611f85565b925050602061207085828601612001565b9150509250929050565b60006020828403121561208c57600080fd5b600061209a84828501611f99565b91505092915050565b600080604083850312156120b657600080fd5b600083013567ffffffffffffffff8111156120d057600080fd5b6120dc85828601611fad565b92505060206120ed85828601612001565b9150509250929050565b60006020828403121561210957600080fd5b600061211784828501612001565b91505092915050565b60008060006060848603121561213557600080fd5b600061214386828701612001565b935050602084013567ffffffffffffffff81111561216057600080fd5b61216c86828701611fad565b925050604061217d86828701612001565b9150509250925092565b60008060006060848603121561219c57600080fd5b60006121aa86828701612001565b93505060206121bb86828701612001565b925050604084013567ffffffffffffffff8111156121d857600080fd5b6121e486828701611fad565b9150509250925092565b60006121fa838361247f565b60208301905092915050565b61220f8161284a565b82525050565b61221e816127ba565b82525050565b61222d816127ba565b82525050565b600061223e82612759565b6122488185612787565b93506122538361274c565b60005b82811015612281576122698683516121ee565b95506122748261277a565b9150600181019050612256565b50849250505092915050565b612296816127cc565b82525050565b6122a5816127cc565b82525050565b60006122b68261276f565b6122c081856127a9565b93506122d081856020860161288f565b6122d9816128c2565b840191505092915050565b60006122ef82612764565b6122f98185612798565b935061230981856020860161288f565b612312816128c2565b840191505092915050565b600061232882612764565b61233281856127a9565b935061234281856020860161288f565b61234b816128c2565b840191505092915050565b600060c08301600083015161236e600086018261247f565b506020830151848203602086015261238682826122e4565b915050604083015161239b604086018261247f565b5060608301516123ae6060860182612215565b5060808301516123c1608086018261228d565b5060a08301516123d460a0860182612215565b508091505092915050565b60006060830160008301516123f7600086018261247f565b50602083015161240a602086018261247f565b506040830151848203604086015261242282826122e4565b9150508091505092915050565b6000606083016000830151612447600086018261247f565b50602083015161245a602086018261247f565b506040830151848203604086015261247282826122e4565b9150508091505092915050565b612488816127f8565b82525050565b612497816127f8565b82525050565b600060208201905081810360008301526124b78184612233565b905092915050565b600060208201905081810360008301526124d98184612356565b905092915050565b600060208201905081810360008301526124fb81846123df565b905092915050565b6000602082019050818103600083015261251d818461242f565b905092915050565b600060208201905061253a600083018461248e565b92915050565b6000604082019050612555600083018561248e565b6125626020830184612206565b9392505050565b600060608201905061257e600083018661248e565b818103602083015261259081856122ab565b905061259f604083018461248e565b949350505050565b600060c0820190506125bc600083018961248e565b81810360208301526125ce81886122ab565b90506125dd604083018761248e565b6125ea6060830186612206565b6125f7608083018561229c565b61260460a0830184612224565b979650505050505050565b600060c082019050612624600083018961248e565b8181036020830152612636818861231d565b9050612645604083018761248e565b6126526060830186612224565b61265f608083018561229c565b61266c60a0830184612224565b979650505050505050565b600060608201905061268c600083018661248e565b612699602083018561248e565b81810360408301526126ab818461231d565b9050949350505050565b60006060820190506126ca600083018661248e565b6126d7602083018561248e565b81810360408301526126e981846122ab565b9050949350505050565b6000604051905081810181811067ffffffffffffffff8211171561271657600080fd5b8060405250919050565b600067ffffffffffffffff82111561273757600080fd5b601f19601f8301169050602081019050919050565b6000602082019050919050565b600081519050919050565b600081519050919050565b600081519050919050565b6000602082019050919050565b600082825260208201905092915050565b600082825260208201905092915050565b600082825260208201905092915050565b60006127c5826127d8565b9050919050565b60008115159050919050565b600073ffffffffffffffffffffffffffffffffffffffff82169050919050565b6000819050919050565b600061280d82612820565b9050919050565b60008115159050919050565b600073ffffffffffffffffffffffffffffffffffffffff82169050919050565b6000819050919050565b60006128558261285c565b9050919050565b60006128678261286e565b9050919050565b6000612879826127d8565b9050919050565b82818337600083830152505050565b60005b838110156128ad578082015181840152602081019050612892565b838111156128bc576000848401525b50505050565b6000601f19601f830116905091905056fea265627a7a72305820f321a6041420e22acf3217741e783c583b6e8da13bdbc1c1b4ac99a97dd195d56c6578706572696d656e74616cf50037",
  "source": "pragma solidity ^0.5.0;\npragma experimental ABIEncoderV2;\n\ncontract FLibra {\n\n  address constant temporaryPurchaser = address(0);\n  uint256 internal itemId = 0;\n  uint256[] public onSaleItems;\n\n  Item[] public allItems; \n\n  mapping(address => uint[]) public myItemId;\n  mapping(address => uint[]) public myPurchasedItemId;\n  mapping(uint256 => SellerReview) public reviewToSeller;\n  mapping(uint256 => PurchaserReview) public reviewToPurchaser;\n\n  // structs\n  struct Item {\n    uint256 id;\n    string itemName;\n    uint256 price;\n    address seller;\n    bool selling;\n    address purchaser;\n  }\n\n  struct SellerReview {\n    uint256 itemId;\n    uint256 star;\n    string text;\n  }\n\n  struct PurchaserReview {\n    uint256 itemId;\n    uint256 star;\n    string text;\n  }\n\n  //events\n  event PostItem(uint256 id, string itemName, uint256 price, address seller, bool selling, address purchaser);\n  event ItemPurchased(uint256 id, address purchaser);\n  event EditItem(uint256 id, string itemName, uint256 price);\n  event WriteReviewToSeller(uint256 itemId, uint256 star, string text);\n  event WriteReviewToPurchaser(uint256 itemId, uint256 star, string text);\n\n  constructor() public {\n\n  }\n\n  // -------- Post a Item --------\n  function setItem(string memory _itemName, uint256 _price) public {\n    allItems.push(Item(itemId, _itemName, _price, msg.sender, true, temporaryPurchaser));\n    myItemId[msg.sender].push(itemId);\n    //onSaleItems[allItems[itemId].selling].push(allItems[itemId].id);\n    emit PostItem(itemId, _itemName, _price, msg.sender, true, temporaryPurchaser);\n    itemId = itemId + 1;\n  }\n\n  // -------- Purchase a Item --------\n  function purchaseItem(uint256 _id) public {\n    Item memory _item = allItems[_id];\n    _item.selling = bool(false);\n    _item.purchaser = msg.sender;\n    allItems[_id] = _item;\n    myPurchasedItemId[msg.sender].push(_id);\n    emit ItemPurchased(_id, msg.sender);\n  }\n\n  // -------- Edit a Item --------\n  function editItem(uint256 _id, string memory _itemName, uint256 _price) public {\n    require(allItems[_id].seller == msg.sender);\n    Item memory _item = allItems[_id];\n    _item.itemName = _itemName;\n    _item.price = _price;\n    allItems[_id] = _item;\n    emit EditItem(_id, _itemName, _price);\n  }\n\n  // -------- Write Review to Seller --------\n  function writeReviewToSeller(uint256 _id, uint256 _star, string memory _text) public {\n    require(allItems[_id].selling == bool(false));\n    require(allItems[_id].purchaser == msg.sender);\n    reviewToSeller[_id] = SellerReview(_id, _star, _text);\n    emit WriteReviewToSeller(_id, _star, _text);\n  }\n\n  // -------- Write Review to Purchaser --------\n  function writeReviewToPurchaser(uint256 _id, uint256 _star, string memory _text) public {\n    require(allItems[_id].selling == bool(false));\n    require(allItems[_id].seller == msg.sender);\n    reviewToPurchaser[_id] = PurchaserReview(_id, _star, _text);\n    emit WriteReviewToPurchaser(_id, _star, _text);\n  }\n\n  // -------- My Items --------\n  function getMyItemId(address _address) public view returns (uint[] memory) {\n    return myItemId[_address];\n  }\n\n  function getMyItem(uint256 _id) public view returns (Item memory) {\n    return allItems[_id];\n  } \n\n  // -------- All Items --------\n  function getNumberOfItem() public view returns (uint256) {\n    return allItems.length;\n  }\n\n  function getAllItem(uint256 _id) public view returns (Item memory) {\n    return allItems[_id];\n  } \n\n  // -------- On Sale Items --------\n  function getOnSaleItemsId(bool _selling) public view returns (uint[] memory) {\n\n  }\n\n  function getItemOnSale(uint256 _id) public view returns (Item memory) {\n    if (allItems[_id].selling == bool(true)) {\n      return allItems[_id];\n    }\n  }\n\n  // -------- My Purchased Items --------\n  function getMyPurchasedItemId(address _address) public view returns (uint[] memory) {\n    return myPurchasedItemId[_address];\n  }\n\n  function getMyPurchasedItem(uint256 _id) public view returns (Item memory) {\n    require(allItems[_id].selling == bool(false) );\n    return allItems[_id];\n  } \n\n  // -------- Review --------\n  function getSellerReview(uint256 _id) public view returns (SellerReview memory) {\n    return reviewToSeller[_id];\n  } \n\n  function getPurchaserReview(uint256 _id) public view returns (PurchaserReview memory) {\n    return reviewToPurchaser[_id];\n  } \n}",
  "sourcePath": "/Users/yosuke.aramaki/Desktop/proto/flibra-v1/contracts/FLibra.sol",
  "compiler": {
    "name": "solc",
    "version": "0.5.7+commit.6da8b019.Darwin.appleclang"
  },
  "schemaVersion": "3.0.6",
  "updatedAt": "2019-09-28T10:06:31.716Z",
  "devdoc": {
    "methods": {}
  },
  "userdoc": {
    "methods": {}
  }
}